:020000040000fa
:080000001419040000000000c7
:020000040000fa
:103228000f3624000eff27000e0188000000000062
:103238000c000700c0022600210020000f00070034
:10324800000020000000e000020032000000020040
:10325800000000003e2e0200020000000040da00dc
:103268000000fe0040de24000000e0000200320002
:10327800102020009001880000000600a1028800ac
:10328800800078000000eb001a003700e280400060
:1032980054a0b4009101ba00e280400054a0b400e8
:1032a8009102ba00e280400054a0b4000002eb0092
:1032b800472bde00f507b200a6018800602ce1006c
:1032c80008003a000049eb000201e800020039005a
:1032d8003420ec0002f0a0008301e900f9ff3e0071
:1032e800040037006128e100010032000082eb0091
:1032f800040007001101ba000200e000e3ff3a00f1
:103308000000060004d0a300e20f49001c003900a9
:10331800810278003549ba000201e800020039004c
:103328003420ec0002f0a0008301e9000f00320015
:103338002549ba000201e800020039003420ec00f7
:1033480002f0a0008301e900080032000400e00058
:103358000600320015c9ba000201e800020039006f
:103368003420ec0002f0a0008301e9008180e8002d
:1033780054a0b4000300e000e2ff3a000000060099
:103388009102ba00055978008301e900f7ff32007d
:10339800c82ade00055978008301e900f3ff3200ee
:1033a8000400e000f1ff320011d9ba00eeff370047
:1033b8000c5d040002000000325b04000200000003
:1033c8000e5b040002000000728504000200000089
:1033d8001885040002000000f884040002000000c0
:1033e800827f0400020000004a7f040002000000ff
:1033f800206e0400020000001e7d04000200000090
:10340800c87c040002000000a27c04000200000046
:10341800e287040002000000b087040002000000f8
:103428003a51040002000000bc50040002000000f1
:1034380006500400020000003a7604000200000072
:103448000876040002000000542204000200000074
:1034580032220400020000001a22040002000000c8
:10346800ea6b0400020000003e6a0400020000004b
:10347800ae69040002000000589204000200000037
:103488000092040002000000e29104000200000023
:103498002079040002000000b62a0400020000009f
:1034a800ae920400020000007092040002000000c6
:1034b8006c920400020000006a92040002000000fe
:1034c8007c92040002000000ac920400020000009c
:1034d80082920400020000000081eb0033013700f3
:1034e800889fbe008a9fbe008c1f7800d40007000a
:1034f800db00330003866c006450e1002e003200cc
:103508006420e100330032006150e1002f003200f6
:103518006120e1003100320085855500eb07b000dd
:1035280009002000080420000500370008044400b2
:1035380089844c000a0031000603430087834b004e
:103548000001530081815b00f8ff33000203be00d5
:103558000800a0000804440089844c00f6ff3900e4
:10356800c639dd008301730001003200130020001a
:103578008904d1000884d3000998a300050032000b
:103588000800a7000300a0008904d1000884d30024
:103598008b05e8008904d1000884d3000001eb0002
:1035a8000281d2006b00070001f0a1000cf0a70017
:1035b80001f0a000b30037006420e100b50032003c
:1035c8000801be000200be00f7ff37006120e100dd
:1035d800b00032006000b800f3ff370000002000a0
:1035e80001f82700f0ff3700839f68000100e00022
:1035f80002003d0060001000e08018000300e000b9
:1036080002003d0060011100e081190087010700f8
:103618004f00e00002003b0060001000e08018004e
:10362800000006000001be00700007000470a7003b
:1036380003f0a1006509b100160032000d00350045
:103648006828e10006003500f0ff2f00f1ff270091
:103658000300e00013003b00010028000000050003
:1036680000004000818048008502e900fcff3a0024
:1036780008003700f88f420002003c008000eb0091
:10368800000005008100d1000080d3008502e80019
:10369800fcff3a000300e00002003b00600010005d
:1036a800e080180000000600889fbe008a9fbe00c8
:1036b800010578000100e0000400350008003c0026
:1036c8000000e00020003200050037006000100014
:1036d800e080180002003b0001f02c001a003700bf
:1036e8000004be006011b8006b0920000982cf00f9
:1036f800020039000882cf000441b000694252003c
:103708000e00320008003b008281710061016400f4
:103718008904d1000884d3008b05e8000442e8003e
:10372800f9ff3a00050037000804440089844c007a
:103738008b05e9000442e900fbff3a000500070099
:103748000af0a70001f0a0004f05be004f04be001c
:103758000000060081002000618055000b003d003c
:103768000b00200061fe2f000100e1001d00340065
:1037780082817100610164008904d1000884d3004a
:103788000000e800faff3a007100200061006400c0
:103798000300700002006000090032006104440068
:1037a800e0844c000988a500050032008b05e8007c
:1037b8006808e10002003a008904d1000884d300b7
:1037c800f20f20000258e10005003d00c75ddd0052
:1037d800f907b2008980750008007800000006002b
:1037e8000bf827008b00780000000500c70ade00f0
:1037f800f107b200f50fb20008003200e1cf420035
:10380800020032000170a00024000500810f700042
:10381800010032000408050044000500810f700013
:1038280002003a00140005008502e900000040008b
:1038380081c04800fcff3b000170a0002400050087
:103848000004be00e9ff07000003be000405be0037
:103858000200be00e5ff0700844f75000000060067
:103868000200be006450e100050036006420e1005b
:10387800020036000968a30001003a000800be00f3
:103888000160a0004f0678004f05be004f04be003f
:1038980000000600f0ff2f00f1ff2700f9ff3700b6
:1038a800811f78000100e00002003d006000100068
:1038b800e08018000300e00002003d0060011100f4
:1038c800e0811900e90007004f00e00002003b001a
:1038d80060001000e080180000000600889fbe000d
:1038e8008a9fbe008c1f7800d5ff0700dcff3300dd
:1038f80003866c006450e100240032006420e1007b
:10390800270032006150e100220032006120e1000e
:10391800210032008b854200eb07b1000134b8006a
:10392800003ab8000804420089844a00013ab80005
:103938000030b8008880400009014a0004003300c4
:103948000000400081804800020149008b05e90021
:10395800c909dd0083017000010032001300200056
:10396800c814de004814dd004709de001200b2006a
:10397800c808de000884700076ff070001f0a10087
:103988000cf0a70001f0a000beff37006120e100a5
:10399800c0ff32000801be000200be00f7ff37007a
:1039a8006150e100fcff3a00baff3700889fbe0073
:1039b8008a9fbe008c9fbe00820578000004be006e
:1039c8008aff07000800be006420e10007003900f4
:1039d80002003a00f1ff2700f0ff2f000160a0006d
:1039e8001202200002408800550037006120e100e3
:1039f80003003a000b00a70001f82300500037002d
:103a080001f0a1000200210093642400fe000700d9
:103a18000800be0004003500b2fd2000930c24000d
:103a2800fb0007000004be000005eb000b00a60029
:103a38004f0dde0001f0a1000004be0032982f00f7
:103a480023ea2300a5ff07000001eb0003f0230091
:103a58000b00a70003f823008e000700f1fe070003
:103a68000000a7000a00a2000fff07000b00e000fb
:103a7800030032000200200003f023008400070046
:103a880001f0a2000006be000200200093042400fa
:103a980092ff07000801be007e000700809fbe005d
:103aa8000c00be0022a22a00d3a723008bff070028
:103ab8004f01be00770007000004be0001f0a1001e
:103ac8000200200003982300cf0007000800be0072
:103ad800190035000001be0080ff07000006be0087
:103ae800b2c52900e36223007cff070022222b00d5
:103af800f3942b00670007000c01be0077ff070056
:103b0800e273280083c02300620007000c01be0096
:103b180072ff070042aa2a00a3e22b005d000700fb
:103b28000c01be006dff07000801be006bff070017
:103b38000801be00570007000a00a70001f0a20014
:103b48004f06be004f05be004f04be000000060031
:103b58000001eb0095ff3700889fbe008a9fbe00da
:103b68008c1f78000004be0020ff07000478a30023
:103b780026003a006120e1002500320009f8a30080
:103b880025003a006420e10021003200f507b10069
:103b98000508a300020032000000400081804800b0
:103ba8006044b8000310200002002000000040001c
:103bb800818048000805440089854c000a054100b9
:103bc8008b8549000a0550008b8558000300330097
:103bd8000a00be0002047400838474008301d100cb
:103be8000281d300830f7100f0ff3a008904d100ed
:103bf8000884d3006001490082017800c1adde006d
:103c0800fb07b000d3fe07001eff37000960a000c5
:103c18000800be001bff3700120220000240880087
:103c2800f0ff2f00f1ff270016ff37006022b800d1
:103c3800060220000000d0008180d2000482d20059
:103c48008582d2000000a0000202520083825a003e
:103c5800030031000202420083824a000000a100f2
:103c68000603e900f3ff3a0000000600efff070033
:103c78000400be0000000600020ab900001bb900db
:103c88000200b800810042008100430000000600e5
:103c980003f0a200889fbe008a9fbe008c1f780098
:103ca800e7fe0700eefe33006450e1004f003200eb
:103cb8006420e1005200320003826c0007003b00e0
:103cc8000905d0000306d000820f54000c065d00e1
:103cd80002003900020032008901780003067800ea
:103ce8008582550004003d000003fd008103fd00ae
:103cf8008502ea008b854200840f720002003b00b7
:103d080060001000e08018006011b8000005eb00aa
:103d18007a28e1000a00390006007800c75ddd0056
:103d2800f707b200878075002d0037008281710087
:103d38000a017800610560008180d1000080d3000d
:103d48008502e900f9ff3b0006044000878448002b
:103d580002003b0060041400e0841c000988a300f2
:103d6800070032008a81710082817100610164005c
:103d78008904d1000884d3008b05e80017003700b8
:103d88000978a30013003a000b00e0001300340088
:103d98008b05e9000804440089844c000a44740037
:103da8000978a3000d003a000b00e000070034007a
:103db8008b05e9000804440089844c0001003a009e
:103dc8000b0020000978a300f7ff32000001eb0088
:103dd80002003700828171000a0178005dfe070049
:103de8000cf0a70001f0a000a6fe37006420e10057
:103df80002003a00838f6c00a6fe33000801be0063
:103e08000200be009ffe370014002000510037005a
:103e18000400200000003700889fbe008a9fbe0073
:103e28008c1f78004f26dd0085fe07008cfe3300ce
:103e38006120e100430032006250e10041003e0091
:103e48003e0039006420e1003c0032000582550044
:103e58000f003b000402e80038003a00800f5300ce
:103e6800818f5b00350034000800be0003f0a1001c
:103e780001f0a60003f0a0000cf0a70085ff0700e2
:103e880080fe37000603430087834b000c4646003c
:103e98000005530081855b00020033000a03be0061
:103ea8000c00a0000402e900f6ff3b00850578003d
:103eb8000602430087824b0004003a006000b80005
:103ec80009f0a70001f0a0006efe370000025200c2
:103ed80081825a000704e00004003300060343000f
:103ee80087834b008b05e900faff37000905780046
:103ef8000604be000203be006011b80015fe0700ec
:103f0800e00f5200e08f5a000700350002003c0025
:103f18000c08a300040032000601be0003f0a00054
:103f28000cf0a7005bff07000a85680001f0a100fc
:103f38000af0a70001f0a00052fe37000800be00fa
:103f480050fe3700100220000cf0a6000040880048
:103f580050fe3700889fbe008a9fbe00841f7800ed
:103f680037fe07004f00780011003300f0ff2f00e4
:103f7800838f6c0006003b00040565000a00a7005b
:103f88000800370009f0a6001000200008003700dc
:103f9800820f5400838f5c0003003900100020005a
:103fa80001003e000000200009f0a7000000ea0020
:103fb8004f05be004f04be000000e00000000600f0
:103fc8001004b100070035009001b100040034006e
:103fd8007000b100030035009001b10001003c0001
:103fe8001000050000000500800078001104b100f1
:103ff800030035009101b10001003c000050a00011
:1040080000000600800078001106b10003003500aa
:104018009101b10001003c000050a1000000060021
:104028000001780000c2b300010037000201e80077
:104038009240780080cf5000fcff3200e9cf50005a
:10404800faff3200d0c2b30080cf500003003a001c
:104058000201e80014c0b300050037000042eb007d
:10406800b0c2b30080cf500001003a000201e8005e
:104078008000eb0005fd2f00040037006a08b90036
:1040880000804100850040000201e8009201fb0029
:1040980005804100e90f5000f8ff36000404e000f5
:1040a800010032008100ea000100780000000600eb
:1040b800889fbe008a9fbe008000780000c2b300bf
:1040c80001003700890078008104780039447800bd
:1040d800804f5400fbff3200e94f5400f9ff3200d3
:1040e800d0c2b300804f540004003a00194478004d
:1040f8008184e8001ac0b300060037000045eb00d1
:10410800b0c2b300804f540002003a00194478004e
:104118008184e8006022b8000a003700a20020006d
:10412800030020000400be00d3fe07000b4144003a
:104138000281fb0003002000000241008182490047
:10414800394478000880fb000bfd2f000b0040006d
:10415800e90f5000f1ff36000a04e00002003200c7
:1041680060021200e0821a000400be004f05be0083
:104178004f04be00000006000002780081017800ac
:1041880001007800110009000280d8008400e800ce
:104198000000e0000200320001027800f9ff370059
:1041a8008048eb00110009008281d8008000fd00e2
:1041b80081017800e94f5000010034006740400059
:1041c80005c3b300055240000100e000f5ff3a00c6
:1041d8000400780000000600881f780000047800ba
:1041e8000100e0000200350080017800040037007b
:1041f80080017800d0c2b300805978008100ea00bd
:1042080003007800dcff0700080078004f047800fe
:10421800000006008001eb00020037008171780081
:104228008301e800828f5100fcff3a00000006007d
:1042380001002000d0e98900e1e9890011c0b3003c
:1042480080d32300014878000000060082d32300b1
:104258001204e00006003a001000200001002000cf
:10426800d0e98900e1e9890010c0b300004978006d
:10427800d2e62400631c2400d0e98100e1e9810032
:104288007dfe07000001be0090032300010020000e
:104298000200400083804800d0e98900e1e98900f4
:1042a8004088de00cf80de0000f0a100000006009c
:1042b8000c00fa00889fbe0000047800cfb0970079
:1042c800f0ff2700d0bf9f008004eb0099bf9f003c
:1042d80088bf9f00a8bf9f00200c2000b0bf9f0090
:1042e8007881570070805700cb0507000fb89700fa
:1042f800094878000fb897000804500008007800b3
:104308004f04be000080fa0000000600800178001b
:1043180000017800010037000201e8001204e00003
:10432800fdff3a0031407800005978000004e000b1
:10433800fcff3a00030078000000060010417800f6
:10434800814f5100040032000000e8000204e00040
:10435800faff3a000000eb00000006001041780068
:10436800b141510003003a000000e8000204e000f7
:10437800faff3a000300fb00000006008001780005
:104388000001780031407800005978000004e0000e
:10439800fcff3a0003007800000006008000780067
:1043a8003004e000feff3a00010050000000e90080
:1043b80000000600810178000002eb000b003700c6
:1043c800e44078000104e000030032000402e80041
:1043d80093cf5000040032008180fb001380fb0063
:1043e80000805000000006008301e800820f5200a0
:1043f800f3ff3a000000050000037800800278000f
:10440800020278008001eb00080037000402e9008e
:1044180063c07800805a78008301e8000004e00057
:1044280002003a008000eb0006003700828f51003e
:10443800f6ff3a00fbff37000040eb0080f07a00ff
:104448008100e800848f5000fbff3a0006007800e6
:1044580000000600889fbe000004be000d00370063
:1044680009007800cdff0700000178000800be00b1
:10447800d0ff07000000e00002003a0008007800c2
:10448800090037009900fb000800e800abff0700af
:10449800000478000800e000020032001804e00080
:1044a800efff3a000000eb004f04be0000000600da
:1044b800889fbe000004be000000e00003003a0030
:1044c800d8ea81000800e000130032000800be00ae
:1044d800d60d0700000444001804e00004003a0068
:1044e8000000eb00d0ea8900000478000a003700d9
:1044f8000800be00b90d070000004400d0ea89009a
:104508001004e000020032000058eb000100370000
:104518000000eb00d0ea8900080078004f04be00d4
:1045280000000600e4874700889fbe008a9fbe00ff
:104538008c9fbe008e1f7800000578000107780068
:10454800820578000000eb00004088000100e000d0
:10455800010032008a0878000a047800b84478001c
:104568000900fb004f0407000000e00002003200d1
:1045780008057800f8ff3700d0c2b30080cf540098
:1045880005003a00984478000a84e80010c0b30097
:1045980090f79f00070037000041eb0092f79f005b
:1045a800b0c2b30080cf540002003a0098447800ab
:1045b8000a84e80000c3b30080cf540017003a0013
:1045c80008057800ba4478000b00e00002003200c9
:1045d800f08f550009003a0080c7b30080cf54001f
:1045e8000300320080c5b30080cf540007003a00b2
:1045f8009a4478000885e8000b0120006066b8003e
:104608000040eb0080f79f00100037000b00e0002f
:10461800faff3a008b002000f8ff37000b00e0009b
:1046280003003a0008057800ab002000f3ff3700cc
:1046380008057800f1ff37002002200000408800bc
:104648000205780012c0b300240037000904fb00fb
:10465800080078005afe07000000e000050032005c
:104668000800780067fe070091ccb30001444000c1
:104678000500370001fd2f0001004400e90f50003c
:1046880015003e0001c444000800fb008b0f5000d9
:1046980011003d006159b9000c00be0076fd07000d
:1046a8000801fb00cf91de00000041008180490035
:1046b8000a01e800800f5600818f5e00deff3e0091
:1046c8009a4478000205780012c0b30082f79f0070
:1046d8000006be00ddff37000041eb000e00e000e1
:1046e800030032000ff097000004e00004003a00d5
:1046f8009e00780000c3b300914f100001003a00fb
:104708000a0fe900e14f510003003a000086eb0070
:104718008086eb00050037001ff197000204e000d7
:104728000200320060061600e0861e000c00be0083
:104738004f0778004f06be004f05be004f04be006d
:104748004f00b10000000600889fbe008a9fbe008f
:104758008c1f780080057800010578000206780033
:104768000000eb00004088000b04780001003700cf
:104778000804e800984478000900fb00c903070012
:104788000000e000faff3a00d0c2b30080cf540026
:104798000500320000c0e90080cf5400020032005a
:1047a80080447800010037000804e8000c01780014
:1047b8008a007800080078005aff07000001be0050
:1047c8009a0f540001003a000b0d78009a8f55009b
:1047d80003003a00e00f5100e08f59000f003a0043
:1047e800b0c2b30080cf540004003a00e00f51007b
:1047f800e08f590015003d0008003700d0c2b30013
:1048080080cf540011003a00000020000100280069
:10481800800f5100818f59000a00360020022000c5
:104828000040880002002000030028006b40400080
:1048380080cf540005003200f2ff2f00f3ff27005d
:104848000200370060011100e08119000200be007b
:104858004f0678004f05be004f04be00000006005a
:104868000c00fa00889fbe0000047800cfb09700c3
:10487800f0ff2700d0bf9f008004eb0099bf9f0086
:1048880088bf9f00a8bf9f00200c2000b0bf9f00da
:104898007881570070805700080007000fb897000c
:1048a800094878000fb897000804500008007800fd
:1048b8004f04be000080fa0000000600fe87470093
:1048c800889fbe008a9fbe008c9fbe008e1f780006
:1048d800f0b79f000107780082bf9f000000eb003f
:1048e800a0b79f009f0237008006eb0050c2b300bc
:1048f80080cf5000090032000100fb00ffb0970094
:104908006c0c0700e10f400096023200afb0970030
:104918008100e800a1b79f00920237009e4078000e
:10492800d0c2b30080cf50000c00320007003c001a
:104938006d40500080cf50000a0032006b404000ac
:1049480080cf50000e003a000800370000c3b300c3
:1049580080cf50000a003a00060037000d30a00052
:10496800050037000d00a000030037000d10a0005f
:10497800010037000d20a0000e07e800e7ff370010
:104988000d18a300010032000d00a1000d38a3008e
:10499800010032000d20a1000100fb0002fd2f00e4
:1049a80002004000e90f50000e003e000002eb003c
:1049b800c4b79f0082017800cfb297006a28b90077
:1049c8001e01fb000001410003014100c2b79f0026
:1049d8005e00fb0003004000e90f50000b003e00a2
:1049e800f5ff37000006eb00ccb79f00a0c2b3006c
:1049f80080cf500005003a000fb89700c00078003b
:104a080080bf9f00c1b79f000e07e8000001eb00c0
:104a1800b2b79f00e0c2b3009e4f100018003a00e2
:104a28000de0a0008e00e80064405000914f100097
:104a380002003200010778000c0037000fba970017
:104a4800c402780084bf9f00b5b79f000e87e800b6
:104a58000b0037003fb697006a60b90000004100bc
:104a680003004000b0b79f000e07e8001e01fb00de
:104a780003fd2f0003004100e90f5000f5ff360049
:104a8800be407800e1d79f00c0c6b30080cf500079
:104a9800220032000f003c006940500080cf5000d7
:104aa8007700320004003c000104e00031023200cb
:104ab8006b4050000f00370040c6b30080cf500055
:104ac800930032006540400080cf50008b003a00d0
:104ad8008f00370030c7b30080cf50001a00320073
:104ae80007003c006440500080cf500011003200a5
:104af8000040e80080cf500080003a000f003700e7
:104b080050c7b30080cf500080003200634040009f
:104b180080cf500079003a000900370000002800d3
:104b28000d48a30001003a000001200080867600ad
:104b3800d3ff37000d60a000750037000d50a000ae
:104b48000d70a000720037008fb897004100780000
:104b580081bf9f00000478000000e00001003a00d7
:104b680068ab23008004eb00010037008104e800f3
:104b780089007800088044001004e000fbff3a0038
:104b88003fb197000200e00003003200890f510096
:104b980001003100820478000002eb00e4af9f00be
:104ba800cfb29700898f5200020036000980520068
:104bb800e0af9f004368de00e10660001b003a009a
:104bc8000d06780009003700ffb0970000022000aa
:104bd800b80b0700e10f4000030032002fb0970028
:104be8000000e800a0b79f000c06e800efa89700b7
:104bf800810f5600f4ff3a000081eb00e2af9f00fe
:104c08000a003700880078003100fb0001047800b2
:104c1800ffb09700a70b0700e10f40000300320028
:104c28002fb297000402e800a4b79f000900e9002a
:104c380080047800e10f4000f2ff3a000006eb0024
:104c48000d00e0000a003a00c6013700ffb09700e7
:104c580000022000970b0700e10f4000030032001c
:104c6800afb297008502e800a5b79f000c06e800e0
:104c78006fa89700800f5600f4ff3a00b90137007b
:104c88008fb897004100780081bf9f00cf80de0079
:104c980001017800820178000205be000004be0010
:104ca8000203be000002be004822de00482edd00de
:104cb80004027600e4d79f000d48a3000a003200e2
:104cc8000404e00008003200e14f42000600320010
:104cd80071fd2f00018047000448780018409800b3
:104ce8002900200002003700f0d79f00190020009b
:104cf80072fd2f0002844700a1ff370064fd2f00da
:104d080004844700190020009dff37000d0cb300f4
:104d18000d007800000cb20028003a000d00e000f9
:104d280005003d008fba97004505be004504be004a
:104d380085bf9f00140037000d48a3000b00320008
:104d48000fbe97004c00be008cbf9f004f89de004d
:104d5800cf91de000002be000203780082037800d3
:104d68000605be000404be00070037008fb8970090
:104d78004100780081bf9f0000047800cfc4de00a6
:104d8800090578008a057800e00f5400e08f5c0080
:104d9800e00f5d00e08f5d001f003d003d00b300a7
:104da8006000b8006011b8000804500089845800f9
:104db8000a0559008b855900170037000d00e000df
:104dc80005003d000fb997004205be004204be0031
:104dd80082bf9f00100037000d48a3000700320073
:104de8000fba97004400be0084bf9f006011b8004e
:104df8000205be000004be00070037008fba970006
:104e08004500780085bf9f00000478000900200055
:104e18000a0020000b0020003fb697000c00e000bd
:104e280007003a00e00f5400e08f5c00e00f5d00df
:104e3800e08f5d0002003a0010002000b0b79f002c
:104e48008d007800010cb200e1b79f00000420003b
:104e5800808f50003000320003003c000100e00069
:104e68000800320040003700000820006fb19700aa
:104e7800800f510014003200000c2000800f5100f8
:104e880039003a0014c0b300e57123000b00370065
:104e98000400fb004300dd00050040005001be0097
:104ea8004000be000040e10001c8e10002d0e1007e
:104eb80003d8e1002b0039000442e800f44f520007
:104ec800f3ff3a002700370000012000010020000e
:104ed8006011b80014c0b3000040e10001c8e1004f
:104ee80002d0e10003d8e1001e003900450020008f
:104ef8000000d0008180d2000281d2008381d200dc
:104f08008502e900faff3a000442e800f04f520037
:104f1800f1ff3a0013003700800020000100200054
:104f28006011b80014c0b3000040e10001c8e100fe
:104f380002d0e10003d8e1000a0039003c0020005b
:104f48000000d0008180d2000281d2008381d2008b
:104f58000c06e900faff3a000442e800f54f520057
:104f6800f1ff3a00e4d79f00efd097000100fb0063
:104f78003fb19700820f500002003d00e2d79f002a
:104f8800040037003fb29700800f520001003d0037
:104f9800b0b79f00cfb297000500e00004003200d0
:104fa80063806600020032008502e900c5b79f00f1
:104fb8000de8a3000b0032004fb697003fb09700f2
:104fc800800f560003003c008000eb00c1b79f0033
:104fd800040037004fb197003fb297000401510019
:104fe800c2b79f00efd297000500fb000006eb0058
:104ff800dcaf9f00cfb09700808f500002003400d4
:1050080000805000d0af9f000d28a3003700320069
:10501800e18066000d18a3000c003200d0022000c9
:105028000100e00001003a000080e900ffb09700ad
:10503800a00a0700e10f40000e0032002fb19700d0
:105048000201e800a2b79f000a0037000100e00053
:1050580008003200ffb0970000022000950a070000
:10506800e10f4000030032002fb297000402e8006d
:10507800a4b79f00dfaa97000500e0000f003200e8
:105088000006eb00ffb0970000032000890a070024
:10509800e10f4000030032002fb097000000e80045
:1050a800a0b79f000c06e800dfa89700810f560004
:1050b800f4ff3a000001eb00d2af9f003fb2970027
:1050c800c320dd00607123008080400091b79f00fd
:1050d8004220dd006400500080b79f006320b900c3
:1050e800f0af9f006306500084003700dfaa9700e6
:1050f8000500e00011003200688066000f003a00e9
:1051080000067800ffb0970000022000690a070037
:10511800e10f4000030032002fb097000000e800c4
:10512800a0b79f000c06e800dfa89700810f560083
:10513800f4ff3a000001eb00d2af9f00e180660067
:105148000d18a3000c003200d00220000100e0007e
:1051580001003a000080e900ffb09700550a0700f7
:10516800e10f4000d5ff32002fb297000402e8009b
:10517800a4b79f00d1ff37000100e000cfff320045
:10518800ffb09700000220004a0a0700e10f400024
:10519800caff3200afb297008502e800a5b79f00aa
:1051a800c6ff370000042000efb09700808f500042
:1051b8003100320003003c000100e000080032002a
:1051c8003e003700000820006fb19700800f5100a3
:1051d80011003200000c2000800f510037003a0007
:1051e8001fb097003002be002003be000800be00ba
:1051f8000a01be006e0e0700a40020000500200072
:105208006033b800710e070004c3b30004424000c5
:10521800e4d79f0029003700d5ab2300d5b79f00fe
:105228000d58a30002003a00e0ac2300d0b79f005d
:1052380014002000050020006033b8008fb09700ec
:105248008100e900050033000402d0008582d20005
:105258000683d2008783d200f9ff37000800be001a
:105268000a01be00520e07006f0060005fb1970090
:10527800624078001000370014002000050020006c
:105288006033b8000c0078000000e9000500330026
:105298000402d0008582d2000683d2008783d20020
:1052a800f9ff37000800be000a01be00400e0700e3
:1052b800674060000043b000e0d79f00efd0970040
:1052c8000100fb00ffb09700fa090700e10f40005a
:1052d800030032002fb197000201e800a2b79f0037
:1052e8001fb297006802520094b79f008fb29700d0
:1052f800e482520085b79f0063065600d0ff2f0056
:105308003fb197000090b9007faa970000004200c3
:1053180063005000800f5600a2ff3a000d38a3002a
:1053280010003200dfaa97000500e0000d003400ed
:105338000006eb00ffb0970000022000dd0907001f
:10534800e10f4000030032002fb097000000e80092
:10535800a0b79f000c06e800dfa89700810f560051
:10536800f4ff3a00be407800e1d79f000104e00056
:105378005dfd3a002fb097004f0778004f06be003a
:105388004f05be004f04be00ef01b100000006004b
:10539800889fbe008a9fbe008c9fbe0000017800d7
:1053a800a1cf23001100e0000b003a00e0cf23005a
:1053b800d0e78900b0e78900f1e78900c1e78900f3
:1053c800214090000004a000a04098006140900097
:1053d8000004a000e0409800e7004100c208de0099
:1053e800c20cdd00c4e781000dd62300003624007e
:1053f8000d05500022002000811f780011000900cf
:105408000205d80000067800cf007800c308dd0048
:10541800e48540008001eb0006d62300a5cf2300d9
:105428000100370001027800244090000008a30022
:10543800020032000a003700110a78009400780050
:10544800214090000008a300fbff32000901420040
:10545800828f500002003900840f5100460031004d
:1054680094007800848f5000eeff3e00868f500035
:1054780002003900858f5000eaff3900b0e781004b
:10548800800f52004f003a00858f50004d003a00bf
:105498008301e800e18f5100e2ff36008c8f540051
:1054a800040036008a8f5400020031000b04780093
:1054b80012003700614ab8006151b900b0ff2f00ef
:1054c800010020000200500083805800800f520025
:1054d800818f5a0002003500090478000700370060
:1054e8000d805400323624000200400011000900eb
:1054f8000a80d8000a80b900000478000800780003
:105508005f0a070080017800e10f40002d0032009b
:10551800b0e7810003087800b2e781006400410029
:10552800a2409000808f5100020032000104a000c8
:10553800010037000104a1002141980008804100c2
:105548006400500080097800b0e78900a2cf2300ea
:1055580002087800b1e78100214090000004a00013
:10556800a0409800234090000004a100a0419800aa
:1055780002027800a7ff3700c2e78900828f500037
:10558800090036009200780040cf2300a241900025
:105598000348780091e78900140978008040eb00ff
:1055a800c0e7810021409800c0e78100000a780028
:1055b800244090000004a0002042980064004200ab
:1055c800010037000000eb004f06be004f05be008b
:1055d8004f04be000000060064005000c0e78900c8
:1055e800a04090000104a10021409800000006009e
:1055f800889fbe008a9fbe0000057800e401500025
:1056080013001000c285de00234090000008a300ac
:1056180004003200c3e78900234090000004a10081
:10562800a04198000100780059ff070000047800a5
:105638000000e000170032008a0f50001500320009
:1056480060b8970008005000c284de00898f5500ba
:1056580001003600890578004259dd008a0078008b
:1056680008007800c80907008a0f540009003100b3
:105678004248dd00000044008a0f50000500360053
:105688000a0050000000440092e78100a3e781006f
:105698000288be00080078004f05be004f04be0017
:1056a800000006006900e100040035006d00e1001b
:1056b800030034000002b1000100320000000500c0
:1056c80010000500889fbe008a9fbe008c1f7800ce
:1056d80080407800d0c6b30080cf50003300360039
:1056e8008185fb0042062000110009008285d80050
:1056f80000017800010478000281fb00030020000b
:105708004318dd00cd11de00830170004311dd0078
:105718000209b0000380b0004c35230002014600a6
:105728006022b8000600200007fe23003200be00f9
:105738001201be00d50b0700aa002000809fbe0002
:10574800110009000a84d800000478004f00be0048
:105758000884fb0009002000434add00cd44de0038
:10576800890472004344dd008804b0000980b00059
:10577800080446003802be002803be00c30b070019
:10578800801f780001027800110009008a85d8007e
:105798000102fd004f0078004322dd000c024200a8
:1057a8005403be004402be00280037004a352300d7
:1057b800eacf5000190036000180fb00a20020004b
:1057c800110009000280d800010478000080fb0065
:1057d800010020004309dd00cd00de0081007100da
:1057e8004300dd008004b0000180b00000004500e7
:1057f8006022b8000600200007fe23005001be000a
:105808004000be00a10b07004344dd000a04440029
:105818003802be002803be000c0037000180fb00e0
:1058280001002000430add00cd00de008100720087
:105838004300dd00000045006022b800060020009b
:1058480007fe23005001be004000be008f0b07007a
:105858004f0678004f05be004f04be00000006004a
:10586800889fbe008a1f7800804078000004e0000e
:105878002b003d008040ea00d0c6b300433523002a
:1058880080cf5000560034008104fb0042062000ff
:10589800110009008204d800000178000100780096
:1058a8000201fb00cf91de00c318dd00cd11de0040
:1058b800838170004311dd000209b0000380b0004d
:1058c8004a352300290037000100fb00a200200010
:1058d800110009000200d800010178000000fb0057
:1058e800cf80de00430add00cd00de0081007200bb
:1058f8004300dd008004b0000180b000008041005a
:105908004311dd00030141003202be002203be0044
:105918005001be004000be005c0b07003b00370092
:10592800d0c6b3004340230080cf50002c00340081
:105938008104fb0042062000110009008204d800ff
:1059480000017800010078000201fb00cf91de0021
:10595800431add00cd11de00830172004311dd0022
:105968000209b0000380b0004a402300020145004c
:10597800a8002000110009000800d8000000fb0062
:10598800cf80de00c309dd00cd00de00818071001c
:105998004300dd008004b0000180b0000000450035
:1059a8003002be002003be003200be001201be005d
:1059b800360b0700801f78000102780011000900eb
:1059c8008804d8000102fd004f0078004322dd0062
:1059d8000a0242005403be004402be00ceff370054
:1059e800eacf5000b8ff3c000100fb00cf80de008a
:1059f8004309dd00cd00de00810071004300dd00b9
:105a0800008041005001be004000be004f057800f4
:105a18004f04be0000000600ef04b000889fbe00df
:105a28008a9fbe008c9fbe008e1f78006022b8003f
:105a38006033b800e4a79f00f5a79f0086af9f00da
:105a480097af9f00a0af9f00b1af9f00c2af9f006c
:105a58008002eb00a5a79f00090837008001eb0032
:105a680050c2b30080cf5000090032000100fb0093
:105a7800afa897000f080700e10f400000083200a8
:105a88002fa397000603e800a6a79f00fc0737008e
:105a9800bfab970097407800b0c2b30080cf5000ea
:105aa8001900320007003c006b40500080cf5000c6
:105ab800100032006340400080cf500021003a00bf
:105ac80016003700d0c2b30080cf50000400320067
:105ad8006340400080cf50001a003a00140037009d
:105ae8000330a0003fac97000804e800b8af9f005f
:105af800e7ff37000300a000bfac97008904e80067
:105b0800b9af9f00e2ff37000310a0003fad970038
:105b18000a05e800baaf9f00ddff370003b0a00018
:105b2800bfad97008b05e800bbaf9f00d8ff3700db
:105b38000320a0003fa897000000e800b0af9f0036
:105b4800d3ff37000318a300010032000300a100af
:105b58000338a300010032000320a1000100fb006c
:105b680002fd2f0002004000e90f500010003e0027
:105b78008000eb00e1979f00020278006f91970088
:105b88006a10b900bfaa97001501fb000001410087
:105b980004014100e2979f005500fb00b5af9f004c
:105ba80004004000e90f50000d003e00f3ff3700ed
:105bb8000003eb00e6979f00a0c2b30080cf50001f
:105bc80007003a00cfab970047047800c7af9f00a3
:105bd800e8979f00bfac97008904e800b9af9f0021
:105be800e0c2b3003fad97009a4f100021003a0081
:105bf800830678000de0a0008a00e80064405000a9
:105c0800914f100004003200b1af9f008005eb00f7
:105c1800bba79f00100037004fa89700c00078006e
:105c2800c0af9f00b1a79f003fa997000281e8007d
:105c3800b2af9f00130037003fa297006a20b90057
:105c48000000410003004000b0a79f00bfaa9700d2
:105c58008502e800b5af9f003fab97001601fb0037
:105c680003fd2f0003004100e90f5000f2ff36004a
:105c780004003700830678000dc0a0008003eb0005
:105c8800b7a79f003fac9700b8407800b8af9f0017
:105c9800e1679f0070c6b30080cf50003c0032001f
:105ca80017003c006440500080cf50008f00320045
:105cb8000e003c007c40500080cf50003300320082
:105cc80006003c000104e0007307320000c0e90050
:105cd80080cf5000aa003a002900370080c5b300e1
:105ce80080cf5000a6003a002d00370050c6b30000
:105cf80080cf5000230032001f003c00a70037006f
:105d080000c7b30080cf5000250032000a003c00d5
:105d18006440500080cf50001100320063404000c2
:105d280080cf50001c0032006640500080cf5000e9
:105d380093003a009900370050c7b30080cf500055
:105d4800950032006340400080cf500015003200bb
:105d58006540500080cf500089003a00130037009a
:105d6800000028000d48a30001003a0000012000af
:105d780080867600c3ff37000da0a000870037009b
:105d88000d50a0000d80a000840037000d50a00029
:105d98000d90a000810037000d60a0007f00370043
:105da8000d50a0000d70a0007c003700cfac97000c
:105db80049007800c9af9f00e0a79f000000e000fd
:105dc80002003a000bae2300eba79f000000eb0097
:105dd800f0a79f00020037008100e800f1a79f00ac
:105de800ffa097006fa19700028040001004e00018
:105df800f9ff3a00bfa197000300e0000400320059
:105e08007fa29700848f510001003100f3a79f0003
:105e18007fa097000005eb006f939700800f530059
:105e280001003600000553004368de00e10460000d
:105e380019003a000904780009003700afa8970054
:105e4800000220001b070700e10f4000030032009a
:105e5800afa397008703e800a7a79f000804e800fe
:105e68008a0f5400f5ff3a000085eb000a0037005e
:105e7800efa097003100fb00e1a79f00afa89700b3
:105e88000c070700e10f4000030032002fa4970021
:105e98000804e800a8a79f00ffa597000b00e900e9
:105ea800f0a79f00e10f4000f1ff3a000004eb006b
:105eb8000900e0000a003a00f1063700afa8970091
:105ec80000022000fb060700e10f4000030032003b
:105ed8002fa197000201e800a2a79f000804e8008c
:105ee8008a0f5400f5ff3a00e5063700cfa997005e
:105ef80043007800c3af9f00cf80de000101780027
:105f0800820178000203be000002be00e0a79f00e5
:105f1800f1a79f0082af9f0093af9f004822de0049
:105f2800482cdd0004027400e4679f000d48a300bc
:105f38000c0032000404e0000a003200e14f420085
:105f48000800320079fa2f000980470004487800d9
:105f58004fcd97001a4098002b002000fba79f0008
:105f680003003700f0679f0010002000f0a79f0093
:105f780071fa2f0081804700e1a79f009dff37003d
:105f880062fa2f000f014100e2a79f0013002000d2
:105f9800f3a79f0097ff37000d0cb3000070200097
:105fa80000826600ab0432000dc8a3000200320074
:105fb80064002000b4a79f000d48a3000900320028
:105fc8004fa897004005be004004be00c0af9f0028
:105fd800e89f9f00f99f9f008aa79f009ba79f00ab
:105fe800080037004fa997004200be00c2af9f00cb
:105ff800f3080700e09f9f00f19f9f0082a79f0082
:1060080093a79f006022b8006033b8006f9897008c
:10601800ff9897000fa197009fa197003a080700e3
:106028000000e0000a003d006f9a9700ff9a970071
:106038000fa397009fa3970007f0a200e49f9f007b
:10604800f59f9f0086a79f0097a79f003d00b3007c
:106058000000eb00d0979f006022b8006033b800c2
:106068006f989700ff9897000fa197009fa197003e
:10607800890807000000e000340032006f9897009c
:10608800ff9897000fa197009fa19700f6090700b6
:10609800a5fa2f0005814700790907005f9097004e
:1060a8000000e9006300b900a20020001100090007
:1060b8000200d8008000fd00d1979f000100e00099
:1060c80002003d000100e900d0979f005f9497000f
:1060d8000840ea00e2fd07006f9a9700ff9a9700d0
:1060e8000fa397009fa3970068090700a09f9f0030
:1060f800b19f9f00c29f9f00d39f9f006022b8005e
:106108000600200007ff2300ff0707000000e0004b
:1061180002003d000800e9000b0037006022b800cb
:1061280006002000470224002f989700bf98970088
:106138004f999700df999700f80707000000e000e3
:10614800020035000800e800d0979f005f93970091
:10615800d6a79f000600e00003003c0010c0b30073
:10616800e0679f0002003700afcb9700e7679f000a
:106178000d0678000c10b20008003a000d98a30034
:106188008f0232005fa49700e40f4400030035003b
:10619800bfa49700890f5400060235003fa5970059
:1061a8000a00e000040032000d98a300020032004b
:1061b8000a05e900baa79f00bfa5970020c1b30050
:1061c800f28f550001003e006fc09700e0679f0006
:1061d8006022b8006033b8006f989700ff98970066
:1061e8000fa197009fa197002b0807000000e0006f
:1061f800710032006f659700afc897000ac0500061
:1062080097fd07000002be000203be006f989700ca
:10621800ff9897000fa197009fa19700c407070058
:10622800e09f9f00f19f9f0082a79f0093a79f0078
:10623800b30807000004be000e090700e00f540071
:10624800e08f5c0004003d006022b80006002000da
:10625800071f24002f0707000002be000203be002c
:106268006f989700ff9897000fa197009fa197003c
:106278007b0907006022b8000600200007fe230003
:10628800a60707000000e0000c0035006022b800f7
:106298000600200007fe23006f989700ff989700dc
:1062a8000fa197009fa197001a070700e09f9f0082
:1062b800f19f9f0082a79f0093a79f006f98970068
:1062c800ff9897000fa197009fa197008c080700df
:1062d8000002be006033b8000a00fb00cf80de0079
:1062e800430cdd00cd04de00890474004304dd00a6
:1062f80068004400e0804c00ea7b23000a0040006c
:106308005001be004000be000020e10001a8e100ed
:1063180002b0e10003b8e1001000390004002000d9
:1063280005002a009699290097fb23006f9897008b
:10633800ff9897000fa197009fa19700d308070027
:10634800e09f9f00f19f9f0082a79f0093a79f0057
:106358005fa197000200e80016003700080045001a
:106368005001be004000be000020e10001a8e1008d
:1063780002b0e10003b8e1000f0031006022b8006c
:1063880006002000470224006f989700ff989700a6
:106398000fa197009fa19700bc080700e09f9f00ee
:1063a800f19f9f0082a79f0093a79f00dfa19700fe
:1063b8000300e900d0979f004968de006100600093
:1063c80080cf9f000004e0004000320000802000e1
:1063d800008666003d003a00bfa29700f48f520085
:1063e8000200340046012000b6a79f006f9897006e
:1063f800ff9897000fa197009fa1970040080700fa
:106408000004be000c0578008c0578000b003700ee
:10641800bfa397008703e900b7a79f00a400200047
:10642800050020006033b8000800be000a01be0065
:10643800df0907000205be000004be00e00f54009b
:10644800e08f5c00e00f5d00e08f5d000b00320024
:10645800a4002000050020006033b8000800be003a
:106468000a01be00d9090700e00f5000e08f58006c
:10647800e00f5900e08f5900e5ff3200ef60970008
:106488000100fb003fa49700800f54000f003d005f
:1064980008c05000f2fc07000002be000203be0064
:1064a8006f989700ff9897000fa197009fa19700fa
:1064b8001f070700e09f9f00f19f9f0082a79f0092
:1064c80093a79f00efc49700e9679f006f95970017
:1064d800bfa597000b005500650650000b00e000b3
:1064e80002003a000db8a300010032006606500011
:1064f80063806600010032000c06e9000d28a30045
:1065080026003200e18066000d18a3000c0032005e
:10651800d00220000100e00001003a000080e900fc
:10652800afa8970063050700e10f4000180032008c
:106538002fa097000000e800a0a79f0014003700d4
:106548000100e00012003200afa89700000220000e
:1065580058050700e10f40000d003200afa097007a
:106568008100e800a1a79f0009003700afa89700a5
:10657800000320004f050700e10f40000300320030
:106588002fa197000201e800a2a79f000c06e900ce
:106598000c00e000f5ff3c002e0037000d38a3008a
:1065a8000a0032000b003700afa897000002200055
:1065b80040050700e10f400003003200afa197003b
:1065c8008301e800a3a79f000c06e9000c00e00087
:1065d800f5ff3c00e18066000d18a30013003200af
:1065e800d00220000100e00001003a000080e9002c
:1065f800afa897002f050700e10f400015003200f3
:106608002fa297000402e800a4a79f0011003700fa
:10661800e8a79f00f9a79f008aaf9f009baf9f0044
:106628008042eb00e5679f00900037000100e00022
:1066380008003200afa89700000220001d050700df
:10664800e10f4000030032002fa397000603e80083
:10665800a6a79f006f989700ff9897000fa1970033
:106668009fa19700a60707000004be006055b80068
:106678006f6097000000fb00cf80de00c30bdd00d9
:10668800cd00de00818073004300dd00ee7b230037
:106698000e0040003002be002003be000800be000d
:1066a8000a01be00420907000003b000afa8970026
:1066b80000050700e10f4000030032002fa09700fb
:1066c8000000e800a0a79f006f6097000000fb0093
:1066d800cf80de004309dd00cd00de0081007100bf
:1066e8004300dd00000047003002be002003be006a
:1066f8000800be000a01be00340907000205be00fa
:106708000004be00e0a79f00f1a79f0082af9f0092
:1067180093af9f00bfa297000500e00002003a0077
:106728000db8a30051003200afa89700e002200086
:10673800e0040700e10f4000030032002fa3970098
:106748000603e800a6a79f00ef6397000700fb0079
:10675800bfa0970000805000809f9f002c0037004a
:106768000fc997000204e00005003200e00f540052
:10677800e08f5c00e00f5d00e08f5d00a4ff320059
:106788000000fb00cf80de00c309dd00cd00de0085
:10679800818071004300dd00ee7b23000e00400085
:1067a8003002be002003be000800be000a01be0081
:1067b800ff0807000003b000afa89700bd0407005a
:1067c800e10f4000030032002fa297000402e80006
:1067d800a4a79f006f6097000000fb00cf80de0039
:1067e800c30add00cd00de00818072004300dd00b9
:1067f8000e0040003002be002003be000800be00ac
:106808000a01be00f10807000205be000004be0030
:106818006f6397000640e900e0679f00e14f400082
:10682800cfff3a00e8a79f00f9a79f008aaf9f0013
:106838009baf9f000004eb0009003700afa897004a
:10684800000320009b040700e10f40000300320012
:10685800afa397008703e800a7a79f000804e800f4
:106868008f9c9700890f5400f4ff3a000d58a3003d
:1068780009003200afa89700500420008d040700db
:10688800e10f40000c0032002fa597000a05e80030
:10689800aaa79f0008003700afa89700500620005d
:1068a80084040700e10f400003003200afa5970001
:1068b8008b05e800aba79f005f9097000000e00001
:1068c8000b003d000000ea00d0979f00afa897009a
:1068d800d002200077040700e10f40000c003200ce
:1068e8002fa097000000e800a0a79f00080037002d
:1068f800afa89700b00220006e040700e10f400027
:1069080003003200afa097008100e800a1a79f0014
:106918005f909700a8002000110009000800d80027
:106928000003b000afa8970062040700e10f400021
:10693800030032002fa197000201e800a2a79f00e0
:10694800df909700110009008800d8008000fd0042
:106958000003b000afa8970056040700e10f4000fd
:1069680003003200afa197008301e800a3a79f00ae
:106978000d38a300420432000c00e000400434004b
:106988000004eb00afa897000002200049040700ac
:10699800e10f4000030032002fa297000402e80034
:1069a800a4a79f000804e8008c0f540034043200a8
:1069b800f4ff3700dfa297000500e00004003d0067
:1069c8003fa39700050053000000e900b0a79f000f
:1069d8006f989700ff9897000fa197009fa19700c5
:1069e800960607000205be000004be000c427800af
:1069f800e57b23000f0037000400fb00cf80de009a
:106a0800c30bdd00cd00de00818073004300dd0094
:106a1800008042005001be004000be000040e1007e
:106a280001c8e10002d0e10003d8e1000300390009
:106a38000442e800f44f5200efff3a00e4679f0079
:106a48000400fb00bfa0970000875000f80f570014
:106a58000d003c000e4078001afb07000002be0043
:106a68000203be006f989700ff9897000fa1970048
:106a78009fa1970027050700e09f9f00f19f9f00b7
:106a880082a79f0093a79f000e40780074fb070021
:106a9800d0af9f00e1af9f00f2af9f0083b79f0088
:106aa800e00f5400e08f5c00e00f5d00e08f5d00b8
:106ab800040035000800be000a01be00b606070043
:106ac8001300370010002000010020006011b800fa
:106ad80008006000898060000a0161008b81610004
:106ae8008b03d1000a83d3008982d3000882d300a4
:106af80000007200818072000201730083817300bc
:106b0800a50607000002be000203be00010507003b
:106b18000002be000203be006f989700ff9897001e
:106b28000fa197009fa197004d0707000002be0024
:106b38000203be005fa89700efa897007fa99700ff
:106b48008fb19700d10607003c0607000205be007a
:106b58000004be000006eb0008003700a400200077
:106b6800050020006033b8000800be000a01be001e
:106b78000f0807000205be000004be000c01570004
:106b8800b2a79f008e0f56001d0032000c06e800c9
:106b9800a4002000050020006033b8000800be00f3
:106ba8000a01be0009080700e00f5000e08f5800f6
:106bb800e00f5900e08f5900e8ff3200100037005d
:106bc800bfa19700f88f51000d003c0003407800ea
:106bd800bcfa07000002be000203be006f989700cf
:106be800ff9897000fa197009fa19700c90407007d
:106bf800e09f9f00f19f9f0082a79f0093a79f009f
:106c08005fa29700e90f520016003c006022b8000e
:106c18006033b8006f989700ff9897000fa197000e
:106c28009fa197009c0507000000e0003700320094
:106c38006f989700ff9897000fa197009fa1970062
:106c4800fe050700e00f5000e08f5800e00f5900e4
:106c5800e08f59002d003a00dfa29700e18f520023
:106c68002a0034000400200005002e00b6e02200af
:106c7800170124002f989700bf9897004f99970005
:106c8800df999700200507000000e00003003d00a1
:106c98005fa397007300530002003700dfa397003b
:106ca80072805300d0979f002f689700ecfa070076
:106cb800a09f9f00b19f9f00c29f9f00d39f9f00ee
:106cc8000002be000203be006f989700ff9897006d
:106cd8000fa197009fa1970015050700d70507008a
:106ce800e0a79f00f1a79f0082af9f0093af9f008e
:106cf8006044b8006055b800d8b79f00e9b79f0056
:106d0800fab79f008bbf9f00340037006f98970039
:106d1800ff9897000fa197009fa19700c70507004c
:106d2800e0a79f00f1a79f0082af9f0093af9f004d
:106d3800e00f5000e08f5800e00f5900e08f590035
:106d48000200350014060700170037001000200065
:106d5800010020006011b8006fa29700ffa2970001
:106d68000fab97009fab9700040060008580600020
:106d780006016100878161008703d1000683d30083
:106d88008582d3000482d3000000720081807200e3
:106d98000201730083817300ff0507000002be0033
:106da8000203be005b0407000002be000203be002f
:106db8006f989700ff9897000fa197009fa19700e1
:106dc800a7060700d0b79f00e1b79f00f2b79f0062
:106dd80083bf9f000000eb00d0979f0014c0b30052
:106de800e57b2300130037000400fb00cf80de00a2
:106df800c30cdd00cd00de00818074004300dd009f
:106e0800008342003600be002601be006fa4970032
:106e1800ffa497000fad97009fad97000040e100d9
:106e280001c8e10002d0e10003d8e1000300390005
:106e38000442e800f44f5200ebff3a00e4679f0079
:106e48000400fb00bfa4970000804400df90970077
:106e5800010040006f959700000655004b68de0062
:106e680061006000004778000004e00002003a007a
:106e78000900e000010032000c06e90063806600aa
:106e8800010032000c06e9000d28a300260032009c
:106e9800e18066000d18a3000c003200d00220002b
:106ea8000100e00001003a000080e900afa8970067
:106eb80000030700e10f400018003200afa597005b
:106ec8008b05e800aba79f00140037000100e00025
:106ed80012003200afa8970000022000f502070058
:106ee800e10f40000d0032002fa097000000e800dd
:106ef800a0a79f0009003700afa897000003200053
:106f0800ec020700e10f400003003200afa0970039
:106f18008100e800a1a79f000c06e9000c00e00032
:106f2800f5ff3c00430037000d38a3000a0032008b
:106f38000b003700afa8970000022000dd02070011
:106f4800e10f4000030032002fa197000201e80082
:106f5800a2a79f000c06e9000c00e000f5ff3c002a
:106f6800e18066000d18a3000c003200d00220005a
:106f78000100e00001003a000080e900afa8970096
:106f8800cc020700e10f40002a003200afa19700b1
:106f98008301e800a3a79f00260037000100e00056
:106fa80024003200afa8970000022000c1020700a9
:106fb800e10f40001f0032002fa297000402e800f2
:106fc800a4a79f001b0037000000fb00cf80de0055
:106fd800c30add00cd00de00818072004300dd00c1
:106fe800e27b2300020040003002be002003be0006
:106ff8006fa09700ffa097000fa997009fa997007f
:10700800eb060700a4002000050020006033b8004c
:10701800ee0607000003b000afa89700a50207001e
:10702800e10f4000030032002fa397000603e80099
:10703800a6a79f00ef6397000740e900e0679f005d
:10704800e14f4000e0ff3a000b003700afa897007f
:107058000003200097020700e10f40000300320000
:107068002fa497000804e800a8a79f005f90970046
:107078000000e900d0979f005f9097000000e000b3
:10708800f2ff3c00bfa49700f28f540003003400c5
:1070980020c1b300e0679f00020037006fc597006a
:1070a800ea679f00ef6097000100fb00bfa597000b
:1070b80000805500f0979f000104e00002003a00ac
:1070c8000e04e00008003200afa89700e00220009c
:1070d80078020700e10f4000030032002fa097005c
:1070e8000000e800a0a79f006f609700dcf9070088
:1070f8000002be000203be005fb09700efb0970029
:107108007fb197008fb9970060050700cb0407008f
:10711800260037000000fb00cf80de004309dd00b9
:10712800cd00de00810071004300dd00ee7b23000e
:107138000e0040003002be002003be000800be0062
:107148000a01be009a060700a400200005002000de
:107158006033b8009d0607000003b000afa8970091
:1071680054020700e10f400003003200afa197006e
:107178008301e800a3a79f006f6097000000fb0051
:10718800cf80de00430add00cd00de008100720002
:107198004300dd000e0040003002be002003be00a8
:1071a8000800be000a01be00880607000205be00ee
:1071b8000004be00ef6297000540e900e0679f0009
:1071c800e14f4000d3ff3a00e8a79f00f9a79f00ce
:1071d8008aaf9f009baf9f000004eb0009003700b7
:1071e800afa897000003200032020700e10f40001b
:1071f800030032002fa397000603e800a6a79f000c
:107208000804e800ff939700870f5400f4ff3a0042
:107218000d38a3001a0232000c00e00018023400f6
:107228000004eb00afa8970000022000210207002d
:10723800e10f400003003200afa497008904e80082
:10724800a9a79f000804e8008c0f54000c02320024
:10725800f4ff37000d007800000cb2003e003a0041
:107268000d00e00009003d004faa97004401be0050
:107278004400be00c4af9f00e0a79f00f1a79f0095
:1072880082af9f0093af9f001a0037000d48a300fc
:107298000d003200cfaa97004500be00c5af9f0081
:1072a8004f89de00cf91de000002be0002037800a5
:1072b80082037800e4a79f00f5a79f0086af9f0090
:1072c80097af9f000b0037004fab97004600780040
:1072d800c6af9f0000047800cfc4de00090578001f
:1072e8008a057800e8a79f00f9a79f008aaf9f004a
:1072f8009baf9f006fa09700ffa097000fa9970072
:107308009fa99700e00f5000e08f5800e00f590048
:10731800e08f59002e003d003d00b3006000b8002a
:107328006011b8006fa29700ffa297000fab9700fb
:107338009fab97000402500085825800060359004d
:1073480087835900e4a79f00f5a79f0086af9f0099
:1073580097af9f001e0037000d00e00005003d00bc
:107368004fa897004005be004004be00c0af9f0074
:10737800130037000d48a3000a003200cfaa970077
:107388004500be00c5af9f00040178008401780065
:10739800e0a79f00f1a79f0082af9f0093af9f00d7
:1073a8000b0037004fab970046007800c6af9f0030
:1073b80000047800090020000a0020000b002000cb
:1073c800e8a79f00f9a79f008aaf9f009baf9f0087
:1073d800bfa497000900e0000b003a006fa09700d7
:1073e800ffa097000fa997009fa99700e00f5000f2
:1073f800e08f5800e00f5900e08f590002003a0072
:1074080011002000b1a79f000d0678000c0cb200f7
:1074180000042000800f56003b00320003003c00af
:107428000c00e000070032004f0037000008200081
:10743800800f56001c003200000c2000800f560000
:1074480049003a0014c0b300e57b2300130037005d
:107458000400fb00cf80de004309dd00cd00de0024
:10746800810071004300dd00008042005001be0031
:107478004000be006fa49700ffa497000fad9700cf
:107488009fad97000040e10001c8e10002d0e10093
:1074980003d8e100330039000442e800f44f5200f9
:1074a800ebff3a002f003700000120000100200008
:1074b8006011b80014c0b3006fa49700ffa4970030
:1074c8000fad97009fad97000040e10001c8e100b3
:1074d80002d0e10003d8e100220039004900200071
:1074e8000000d0008180d2000281d2008381d200c6
:1074f8008904e900faff3a000442e800f04f52001c
:10750800edff3a001700370080002000010020003e
:107518006011b80014c0b3006fa49700ffa49700cf
:107528000fad97009fad97000040e10001c8e10052
:1075380002d0e10003d8e1000a0039003900200038
:107548000000d0008180d2000281d2008381d20065
:107558008904e900faff3a000442e800f54f5200b6
:10756800edff3a00e4679f006f6597000a00fb0093
:10757800bfa597008b0f500002003d00eb679f00ee
:1075880004003700bfa09700808f500001003d0025
:10759800b0a79f006f9197000200e000040032003e
:1075a80063806600020032000201e900e2979f0052
:1075b8000de8a3000b003200ef9197003fa297005f
:1075c800848f510003003c008002eb00e5979f0088
:1075d800040037006f939700bfa397000703530079
:1075e800e6979f00408c2000008066000184200000
:1075f800810f500006003a006f9497000800e000e1
:10760800110032000804e900e8979f000e003700d7
:10761800008c20000080660001882000810f500047
:1076280009003a00ef949700e28f540003003c00f1
:107638000005eb00ea979f0003003700ef959700dd
:107648008b85e900eb979f00ef6097000100fb0036
:107658000007eb006f919700800f51000100340084
:10766800000751000d28a3004b003200e18066009e
:107678000d18a3000c003200d00220000100e00029
:1076880001003a000080e900afa89700090107004f
:10769800e10f400027003200afa197008301e80006
:1076a800a3a79f00230037000100e0000900320073
:1076b800afa8970000022000fe000700e10f40007d
:1076c8001c0032002fa297000402e800a4a79f0024
:1076d80018003700008c2000008066000188200018
:1076e800810f500013003a00afa897000003200054
:1076f800f0000700e10f400003003200afa297003e
:107708008502e800a5a79f00800520000d58a3006a
:1077180001003a0080072000afa89700e5000700a5
:10772800e10f4000030032002fa397000603e80092
:10773800a6a79f000e00e0000d0032000004eb0039
:10774800afa8970000032000da000700e10f40000f
:1077580003003200afa397008703e800a7a79f00a4
:107768000804e8008e0f5400f5ff3a000007eb000c
:107778003fa49700c340dd00607b23008085400064
:107788004240dd00640550006340b900909f9f00af
:1077980063045000a20037000e00e0000f00320022
:1077a800688066000d003a0000047800afa89700d2
:1077b80000022000bf000700e10f40000300320074
:1077c800afa497008904e800a9a79f000804e8006f
:1077d8008e0f5400f5ff3a000007eb00e1806600c9
:1077e8000d18a3000c003200d00220000100e000b8
:1077f80001003a000080e900afa89700ad0007003b
:10780800e10f40000e0032002fa597000a05e8009e
:10781800aaa79f000a0037000100e0000800320014
:10782800afa8970000022000a2000700e10f400067
:1078380003003200afa597008b05e800aba79f00b7
:10784800008c20008080660000842000808f50001b
:1078580009003a00afa89700000320009500070030
:10786800e10f4000c2ff32002fa097000000e8009f
:10787800a0a79f00beff370000882000808f50001f
:10788800bbff3a00afa8970000032000890007005b
:10789800e10f400003003200afa097008100e8002c
:1078a800a1a79f00800520000d58a30001003a0001
:1078b80080072000afa897007e000700e10f400076
:1078c800abff32002fa197000201e800a2a79f009a
:1078d800a7ff370000042000800f56003100320057
:1078e80003003c000c00e0000700320040003700b5
:1078f80000082000800f560012003200000c200003
:10790800800f56003a003a003b02be002b03be002f
:107918006fa09700ffa097000fa997009fa9970055
:10792800a3040700a4002000050020006033b8006d
:10793800a604070004c3b30004424000e4679f00a4
:107948002b00370079ae23000d58a30001003a0040
:1079580089af230014002000050020006033b80020
:107968000a0078000000e900050033000402d00096
:107978008582d2000683d2008783d200f9ff3700c0
:107988006fa09700ffa097000fa997009fa99700e5
:10799800870407006f006000e9447800e9679f00ea
:1079a8001300370014002000050020006033b800e1
:1079b800880078008100e900050033000402d00047
:1079c8008582d2000683d2008783d200f9ff370070
:1079d8006fa09700ffa097000fa997009fa9970095
:1079e80073040700674060000043b000e0679f0031
:1079f8006f6197000200fb00afa897002d000700f9
:107a0800e10f400003003200afa197008301e800b6
:107a1800a3a79f00e885550064055500630454003a
:107a2800d0ff2f003fa2970000a0b9009f9a9700af
:107a38000080420063005000800f5400a5ff3a0008
:107a48000d38a3000e0032000e00e0000c003400d8
:107a58000004eb00afa89700000220001500070003
:107a6800e10f4000030032002fa397000603e8004f
:107a7800a6a79f000804e8008e0f5400f5ff3a00ff
:107a8800bfab9700b7407800b7af9f00e1679f0092
:107a98000104e000f1f73a002fa097004f077800a3
:107aa8004f06be004f05be004f04be00ef04b100f4
:107ab80000000600889fbe000001780001047800dd
:107ac800b10090000118a300400032000198a30003
:107ad80003003a00180090000000e0003b003a0064
:107ae8000190a0003104980082047800f90fb200d8
:107af800180090000000e00002003a002800900002
:107b0800000c7800ea8f540006003a003800900014
:107b18000078a30003003a0088007800d000200015
:107b2800e4ff0700180290006121b9005800900096
:107b3800e8009000800f5100818f59000b0032003f
:107b48000400e8001004980018007800095878002c
:107b5800000c780011c0b30020d42300014878003d
:107b6800ea8f5400060032001900370088007800b8
:107b780009407800410007008004780014003700ad
:107b8800380090000088a30011003200180190000e
:107b9800a80090004800900082000700980090001c
:107ba800810f500004003200380090000003b30039
:107bb800300498008084eb000000eb00100498006b
:107bc80028009000000c7800010037008084eb004a
:107bd800090078004f04be0000000600889fbe0020
:107be8008a9fbe0080057800010578006044b800cf
:107bf8000200370061044400e0844c006b407c00c4
:107c08000004e000050032008000fb000a00780054
:107c1800caf107000000e000f6ff32000800be00cd
:107c28004f05be004f04be0000000600889fbe003e
:107c38008a9fbe0080057800010578006044b8007e
:107c48000200370061044400e0844c006b407c0073
:107c58000004e000050032008000fb000a00780004
:107c6800b6f107000000e000f6ff3a000800be0089
:107c78004f05be004f04be00000006000200fa00d7
:107c8800889fbe00a0ff9f0001047800b10090000b
:107c9800810478000904b200020032000000fb00f1
:107ca800360037000118a30005003a000103b300ad
:107cb80031049800190498000080eb002f00370069
:107cc800580090000000e00006003a0048009000cc
:107cd80012002000e68057003200070019049800bf
:107ce80024003700280090000000e00008003a0057
:107cf800e0d3230020049800000c78002000200026
:107d080050049800100498000130a0003104980035
:107d180018019000a800900048009000210007007a
:107d280028009000000c78000080eb0010049800f8
:107d380018007800aff8970001587800000c780018
:107d48002ff89700ea4f50000a003a0038009000d8
:107d58000088a3000700320018019000a8009000d6
:107d6800480090000f00070019049800a800900030
:107d7800010c7800aff897000100fb004f04be002b
:107d88000080fa00000006008001eb0002003700c6
:107d980061f079008301e800828f5100fcff3a000e
:107da800000006000a00fa0080017800e20f500087
:107db80028003e00e0ea8100e10f50000800320090
:107dc800802320000000e00005003200042320008a
:107dd8002523200046232000800178000400370076
:107de8000422200025222000462220008322200091
:107df800144090000004e000040035008009eb0006
:107e0800144090000074a0001042980015409000a3
:107e18000028a30003003a00154090000024a000a9
:107e2800904298008001eb00070037001540900051
:107e38000008a300fdff320063c078000000fb00cb
:107e4800000b78008301e800828f5100f7ff3a00a9
:107e58000800370030002000b0bf9f00c3bf9f005c
:107e6800d1bf9f00e2bf9f006a80570000c0da00c0
:107e78006fb99700020078000080fa000000060041
:107e8800889fbe0080047800f0ea81000000e000ce
:107e980003003a00100007000000e0000a00350067
:107ea800f0ea81000900e00002003a0000047800ce
:107eb80006003700000478000900400006000700ab
:107ec8000000e00001003d000084eb00080078009d
:107ed8004f04be0000000600800078000000e000ab
:107ee80004003a0000d62300f0ea89000101780076
:107ef800060037000081eb0000362400808f500018
:107f080002003e00f1ea89000001eb00020078005f
:107f1800000006002800fa00889fbe008a9fbe0065
:107f28008c9fbe0007067800878669000c003b001e
:107f3800030478008704780008f0a10009f0a10084
:107f4800840f5000858f5800860f5900890f5c00f8
:107f5800030033000cf0a20001003a000cf0a1006d
:107f6800fe0007006400e1005f003200780147006e
:107f78006408e100610032006c0147007485570015
:107f88003200be001201be003a04be001a05be004f
:107f98001e039000be0a90008503530006003d00b2
:107fa8000004fd008104fd000205fd008305fd00bd
:107fb8008703ea00050378000df8a30004003200e7
:107fc80060041400e0841c0060051d00e0851d00ad
:107fd8006022b8007d0320000d38e1008006eb0028
:107fe8000b0039004433dd00f300b2008301730055
:107ff80039003700848272000d027800e1066400bf
:108008008b85d1000a85d3008984d3000884d300e6
:108018008703e900f7ff3b0008004000898048001b
:108028000a0149008b81490004003b0060001000f0
:10803800e080180060011900e08119000358a300ce
:10804800090032008d827200848272006102600031
:108058008301d1000281d3008180d3000080d30046
:108068000603e8001b0037000348a30017003a0086
:108078000600e000170034000603e9000d00a30025
:1080880000004800818048000201490083814900be
:108098000348a3000f003a000600e000090034007e
:1080a8000603e90000004000818048000201490001
:1080b8008381490001003a000003eb000348a30054
:1080c800f5ff32006022b800020037008482720097
:1080d800618266007500070003f0a1000cf0a7009c
:1080e80003f0a000b1003700640147006408e10014
:1080f80002003a000df8a300a9003a003200be00c1
:108108001201be00a90037008f1fd1002a03070003
:108118008f87e9000000e00000000600809feb0068
:10812800250307008f87e9000000e0000000060033
:108138002800fa00889fbe008a9fbe008c9fbe0060
:1081480003866b00850007006400e10044003200ec
:108158006408e1004a0032006100e1004600320094
:108168006108e10049003200ec0647006000b800f1
:108178003d02be003d03be00f48657006011b80002
:108188003d04be003d05be007d0320000b00370006
:108198000000a0008d06e90013003200040242002e
:1081a80085824a0006034b0087834b00000040008d
:1081b8008180480002014900838149000802520079
:1081c80089825a000a035b008b835b00f0ff3b0047
:1081d8000802420089824a000a034b008b834b0045
:1081e8008d06e900edff3a008482720086827200f3
:1081f800f707b200878272000100320015002000e4
:108208001e0490003e0b900006035400e63fb000a9
:108218000368a300070032000000a7000500a000c3
:108228008301d1000281d3008180d3000080d30074
:108238000603e8008301d1000281d3008180d300c6
:108248000080d3000002eb000482d2001700070070
:1082580003f0a1000cf0a70003f0a00053003700c2
:10826800640247006408e1004d0032003400be009b
:108278003401be00f6ff37006108e1004800320013
:108288006011b8006000b800f1ff370003ff270055
:1082980002002000fbff3700801feb00c60207002a
:1082a8008f87e9000000e0000000060018002000a9
:1082b80057002000080453000d003d000600200070
:1082c80097fc2f000740e1001e00340084827200f2
:1082d800610260008301d1000281d3008180d30054
:1082e8000080d3000804e800f8ff3a0047002000a7
:1082f8006104600005047400040464000d00320089
:1083080061004000e080480060014900e0814900c8
:1083180003b8a500070032000603e8006538e1004d
:1083280004003a008301d1000281d3008180d30088
:108338000080d300f87f20000830e10003003500fa
:10834800080378006000b8006011b8004433dd000d
:10835800f300b200830173000000060068044700c0
:108368000294be000094be00fc0447008694be0040
:108378008494be0009007800d8020700080078003d
:10838800d602070099007800814f70000b003b006f
:108398000800be00b10207004f00b100030037001b
:1083a800f3ff2700f2ff2f006110b9004f06be004f
:1083b8004f05be004f04be000080fa000000060012
:1083c8008103780009ed07000001be006000b800d5
:1083d8000478a30013003a006220e10015003e0073
:1083e8000d0039008301d1000281d3008180d300c0
:1083f8008301d1000281d3008180d3008301d100a1
:108408000281d3008180d3000538b000c42add0082
:10841800f300b2008381720007f0a70003f0a00008
:1084280000000600f3ff2700f2ff2f006110b900db
:10843800fbff370003ff2700f7ff37001400fa009f
:10844800889fbe008a9fbe008c9fbe000004be00ad
:108458000205be00680047000a90be000890be00f2
:108468009e0207000070a7000bf0a1000bf8a30004
:1084780020003a009e0990000e099000fe0090002e
:108488006e0090009e0290003443200084825200c7
:10849800c6ff32000a003c00b4fc2f000428e100ab
:1084a800140034008301d1000281d3008180d300fd
:1084b8000080d3008502e800faff3a00bbff3700ce
:1084c800b40020000428e10007003c000000400040
:1084d8008180480002014900838149008502e90042
:1084e800faff3a00b1ff370003002800020020001d
:1084f800010037006011b8006000b800abff37001a
:108508001400fa00889fbe008a9fbe008c9fbe00a0
:108518000004be000205be00680047000a90be00c5
:108528000890be006d0207000070a7000bf0a100c4
:108538000bf8a30016003a009e029000304320007a
:1085480080825200b0fe2f000028e1000d003c00a0
:10855800b0fc2f000028e1000d0034001e09900037
:108568008e0890007e0090000501b0000201d10045
:108578008180d3000080d3008502e800fbff3a0029
:108588008aff3700010028000000200087ff37001d
:108598006000b80085ff3700889fbe00830478001c
:1085a8000300e0002c00350003003c00008270004e
:1085b800040271002600320036432000c500200066
:1085c8008383cf000a0039000541b1008283cf00c0
:1085d800070039000541b1008183cf00040039004c
:1085e8000541b1008083cf00010039000541b10089
:1085f80085c353006022b800120032000a003b0015
:1086080084827200610260008301d1000281d3007c
:108618008180d3000080d3000603e8008743e80088
:10862800f7ff3a000700370000004000818048004b
:1086380002014900838149000603e9008743e900f4
:10864800f9ff3a0019ff070009f0a70003f0a0009e
:108658004f04be000000060060001000e080180013
:1086680060011900e0811900d3ff3b00033e2c0094
:10867800f7ff37004f89de0082017800c6ff370018
:10868800c001070005097800000006002800fa006c
:10869800889fbe008a9fbe008c9fbe0003866b0029
:1086a8002eff07000028a30064003a000128a30059
:1086b80067003a000008a30062003a000108a3001e
:1086c80065003a001e009000be0890008106400038
:1086d800ed3fb100f4805700ee019000111ab80088
:1086e8008e099000311bb8009e099000311cb8001b
:1086f800511db800f485570046000700fe019000a0
:108708003a0007008b85e8003e0007008e099000bc
:1087180040000700ee019000340007008b85e80058
:10872800380007008e099000400007009e0990005d
:108738001b18b800890440000a854800fe01900013
:10874800340007008b85e80038000700ee01900030
:10875800300007008e0990001b18b80089044000fb
:108768000a8548000a98a30008003a00040242005b
:1087780085824a0006034b0087834b0008044c009f
:1087880089844c000a054d008d06e9008482720038
:10879800850273004c3add00850272000100320048
:1087a80015002000443ade001400b2004538de000f
:1087b800cb45dd000b007000c540de00cb4ddd0071
:1087c8008b8070004549de00cb55dd000b01710040
:1087d800c551de000d037800b4fe070003f0a100c8
:1087e8000cf0a70003f0a000f0fe37001b18b8003b
:1087f8008502400006834800e0834b0060044c007b
:10880800070037001b18b80006034000878348009c
:10881800faff37001b18b800870340000884480097
:10882800e0844c0060054d00000006001b18b800ed
:108838000804400089844800faff37000108a300b3
:10884800d7fe3a005800be005801be00e3ff3700cb
:108858000008a300d2fe3a0009047800f9ff3700a7
:1088680007f0a200abfd37001400fa00889fbe0095
:108878008a9fbe008c9fbe000005be000206be0097
:10888800680047000c90be000a90be0093010700e4
:108898006400e1001a00320016003e006100e100a9
:1088a8001a0032006e049000fe0490000e0b900037
:1088b8009e0b90006011b8009e0590000b38b10027
:1088c800d501200082817100610164008703d10015
:1088d8000683d3008984d3000884d3008502e90085
:1088e800f8ff3a009beb07000df0a70001f0a0008d
:1088f800aefe3700f1ff2700f0ff2f00abfe370078
:1089080001f8270000002000f7ff37006000b800da
:10891800f5ff3700881f7800000478005001be007a
:108928004000be0004004000858048000601490060
:1089380087814900009cbe000294be000400e1004b
:108948000588e1000690e1000798e1000200310087
:10895800680044001008e8004f0478000000060092
:10896800f4874700889fbe008a9fbe008c9fbe0088
:108978008e1f78000205be000004be00d4b79f0019
:10898800e5b79f00f6b79f0087bf9f000000eb0088
:10899800c0b79f00b0b79f00a0b79f0090b79f00d7
:1089a80080b79f000d042000bfb097004fb097001c
:1089b800000140000000e0000f003d004f08de000d
:1089c80000007100c0b79f004d00070001003d0086
:1089d800120020005000070001003d001200200096
:1089e8005500070061000700660007000f004000ff
:1089f800c8ff0700220037004f08de00000671009c
:108a0800ccb79f003e00070001003d001200200087
:108a18004100070001003d00120020004600070049
:108a2800520007000fb297009fb297002fb397002c
:108a3800bfb39700590007000000520081805a0018
:108a480002015b0083815b0080b79f0091b79f00a4
:108a5800a2b79f00b3b79f000007eb004f000700c5
:108a68000020e10001a8e10002b0e10003b8e10044
:108a7800010031001e0020000e005600c0b79f0004
:108a88004fb297000400e0000700350010002000f6
:108a9800010020006011b80008047000898470008b
:108aa8000a0571008b8571008d06e900beff3a004a
:108ab8000400e00003003d00320007000f00400002
:108ac80094ff07004fa897000000e00004003a0058
:108ad8000fb497009fb497002fb59700bfb59700c4
:108ae8000800be000a01be004f0778004f06be000e
:108af8004f05be004f04be004f01b1000000060044
:108b08000180400090b79f000001eb008fb09700f4
:108b18000100e000000006000200700090b79f000e
:108b28000180400080b79f000001eb00ffa897007c
:108b38000100e000000006000200700080b79f00fe
:108b4800018040006faa9700cf20de00010070006e
:108b5800f0af9f00040242000800be000a01be00f8
:108b68004f18de000002720000000600e4af9f000c
:108b78000804440089844c000a054d008b854d008b
:108b8800000006003fb29700cfb297005fb397008e
:108b9800efb3970000fe2f00000006003fb09700db
:108ba800cfb097005fb19700efb1970000000600c3
:108bb800881f780018002000881f780068ff0700c9
:108bc8008f87e9004f04780000000600801feb0043
:108bd80063ff07008f87e90000000600889fbe003a
:108be8008a9fbe008c1f78000205be000004be00ec
:108bf800e00f5000e08f5800e00f5900e08f590057
:108c08000c003d006000b8006011b8000804500076
:108c1800898458000a0559008b8559001c002000da
:108c28001f00070008003d00180007000006eb00c1
:108c3800050037000006eb001900070002003d00a0
:108c48000f0007001c0020000800be000a01be003b
:108c5800d7ff07000203be000002be000c00e000c0
:108c680001003200060007000400be000601be0035
:108c78004f0678004f05be004f04be0000000600f6
:108c88006000b8006011b80000003700040250000e
:108c980085825800060359008783590000000600a2
:108ca800e00f5200e08f5a00e00f5b00e08f5b009e
:108cb80000000600889fbe008a9fbe008c1f7800b7
:108cc8000205be000004be00e00f5000e08f58000f
:108cd800e00f5900e08f59000a003d006000b8001d
:108ce8006011b80008045000898458000a0559002a
